:020000040800F2
:10000000B01900201D0300087D2A0008652900089A
:10001000792A00085D290008C930000800000000A6
:10002000000000000000000000000000B92E0008E1
:100030006129000800000000AD2E00085D030008E3
:1000400037030008370300083703000837030008A8
:100050003703000837030008370300083703000898
:100060003703000837030008370300083703000888
:100070003703000837030008370300083703000878
:100080003703000837030008370300083703000868
:100090003703000837030008370300083703000858
:1000A0003703000837030008370300083703000848
:1000B0003703000837030008370300083703000838
:1000C0003703000837030008370300083703000828
:1000D00037030008413000083703000837030008E1
:1000E0003703000837030008370300083703000808
:1000F00037030008370300083703000837030008F8
:1001000037030008B12E0008370300083703000842
:1001100037030008370300083703000837030008D7
:1001200037030008370300083703000837030008C7
:1001300037030008370300083703000837030008B7
:1001400037030008370300083703000837030008A7
:100150003703000837030008370300083703000897
:100160003703000837030008370300083703000887
:1001700037030008370300083703000800000000B9
:100180003703000837030008370300083703000867
:100190003703000837030008370300080000000099
:1001A00037030008370300083703000800F002F89F
:1001B00000F0A4F80AA090E8000C82448344AAF15D
:1001C0000107DA4501D100F099F8AFF2090EBAE85B
:1001D0000F0013F0010F18BFFB1A43F0010318477B
:1001E00054D8000074D800000A4410F8014B14F0F1
:1001F0000F0508BF10F8015B240908BF10F8014B78
:100200006D1E05D010F8013B6D1E01F8013BF9D1C0
:10021000641E03D0641E01F8015BFBD19142E4D35C
:10022000704700000023002400250026103A28BF54
:1002300078C1FBD8520728BF30C148BF0B60704758
:100240006E2900F01786702900F0CB8166290CF02A
:10025000358265290CF0328267290CF02F826129E2
:100260000CF02E8203681B0A28BF41F08001692927
:1002700000F03C81642900F03981752900F0368155
:100280006F2901F01381782900F09781E92901F0A5
:10029000AD80E42901F0AA80F52901F0A780EF29BB
:1002A00001F01081F82900F096810368DB0928BF6E
:1002B00041F08001632901F02E80732901F0338021
:1002C000E32901F0FF83F32901F004840020704743
:1002D0001FB50CF0DEF901F0D7F904000020002171
:1002E0000BF05EFF401C6060002000210BF042FF1D
:1002F000E06000F0BFFC1FBD10B510BD01F03FFE77
:100300001146FFF7E5FF06F0F5F802F0E1F803B457
:10031000FFF7F2FF03BC01F0ADF900000948804788
:1003200009480047FEE7FEE7FEE7FEE7FEE7FEE7D7
:10033000FEE7FEE7FEE7FEE704480549054A064BEF
:1003400070470000F12E0008AD010008B011002038
:10035000B0190020B0150020B015002030B410B541
:100360000348804730BCAE4630BC02480047704767
:10037000ED680008E92E000853EA020C23D010B5FE
:100380004C1084EA530404D54042C1F1000138BF47
:10039000491E1B4204D55242C3F1000338BF5B1E05
:1003A00000F07AFC14F0804F04D04042C1F100010B
:1003B00038BF491E14F0004F04D05242C3F100036D
:1003C00038BF5B1E10BD13B540424FF0000070EB0C
:1003D0000104B8BF012001F0004100281CBF6FF0EC
:1003E00000414FF0FF30AFF300801CBD7CB51D46CF
:1003F00016460C00009001D02044401E074B7B4461
:100400002A4669460190304600F05BFF05461CB164
:100410000020694600F068FF28467CBDF10E000010
:100420000FB41CB5084B06AA7B446946009005989A
:1004300000F047FF04460020694600F055FF2046C3
:100440001CBC5DF814FB0000BD0E000070B5044636
:1004500085690068C10601D5302600E02026C00766
:1004600007D070BDD4E9012130469047206A401C76
:1004700020626D1EF6D570BD70B5044685690078A2
:10048000C00707D170BDD4E9012120209047206A20
:10049000401C20626D1EF6D570BD70B50C46054639
:1004A000012A05D02878800600D5EA69002302E0F9
:1004B000012305E05B1C934202D2E05C0028F9D1E5
:1004C000A869E618C01AA861286A18442862284654
:1004D000FFF7BCFF04E0D5E9012114F8010B9047B8
:1004E000B442F8D32846FFF7C7FF70BD2DE9F041AD
:1004F0000646002410687529314616A510D000F074
:100500004EFC002802DA404213A507E031688A0752
:1005100001D512A502E0490704D511A5012401E087
:1005200000F046FC00210A2206F1240709E0B0FB96
:10053000F2FCB0FBF2F302FB1C003030785418469A
:10054000491C0028F3D123462A463046BDE8F04135
:1005500000F037BC000000002D0000002B00000060
:1005600020000000F0B40D460188090502D5214C99
:100570007C4402E01F4C7C440E34002100F1240630
:1005800008E002F00F071209E75D42EA03721B0957
:100590007754491C52EA0307F3D10278002312076B
:1005A00004D5702D06D009B1022311342246F0BCC7
:1005B00000F007BC01231034F8E770B504460D467F
:1005C0002146106800F0F4FB024629462046BDE8AB
:1005D00070400023C6E7D21D22F00703D3E90023B1
:1005E000C0E70368126843F0200303600823C36177
:1005F0000023B7E74CC200002DE9F05F89460446AE
:100600004FF0000ADFF874B1FB44C0F820A0204688
:10061000E1688847002874D0252806D0D4E9012154
:100620009047206A401C2062F1E700265F46204682
:10063000E16888472028054607DB312D05D2781967
:1006400010F8200C08B10643F1E7B00701D526F0F9
:100650000406C4F81CA00027C4F818A02A2D09D04D
:1006600028460BF038FD38B304EB8708303DC8F856
:10067000185019E059F8041B204604EB87029161D9
:10068000E1688847012F054618D1E069002820DA83
:1006900026F020061DE0D8F8180000EB800005EBDE
:1006A00040003038C8F818002046E1688847054601
:1006B0000BF011FD0028EED1012F0AD02E2D08D10C
:1006C0002046E16888477F1C0546022F46F0200639
:1006D000C4DBA069002803DA404246F00106A061AD
:1006E000F00701D026F010066C2D0BD0682D09D034
:1006F0004C2D39D06A2D35D0742D35D07A2D33D08C
:1007000016E038E0E1682F4620468847B8420546A3
:1007100009D16C2F26D04FF48060E1680643204653
:100720008847054604E06C2F1AD04FF480700643CA
:100730000DB3A5F14100192802D8203546F4006612
:100740004A462946204626604E46FFF779FD80B18D
:1007500001280BD0F61D26F0070000F1080956E726
:100760004020E4E78020D8E70020D6E706F104091E
:100770004DE7284652E7206ABDE8F09FDCC1000043
:100780000FB400B58DB010A9099000910B904FF0F7
:10079000FF300A9000200C900648784406900648E6
:1007A00078446A4607900F9909A800F0A9FE0DB099
:1007B0005DF814FB830D00009B0D00002DE9FF5F29
:1007C0001D464FF0FF3B91464FF000085F46D5E9CC
:1007D0000146A96901987F1C8847296A8246884793
:1007E0000028F6D1BAF1FF3F0CD0002E24F4C064EB
:1007F00019DD600614D5BAF12B0F09D0BAF12D0F0F
:100800000ED103E0584604B0BDE8F09F44F4806484
:10081000A96901987F1C8847761E8246002E02DD5A
:10082000BAF1300F03D0B9F1000F26D032E0A96938
:10083000761E01987F1C44F400748847002E82467F
:1008400005DDBAF1780F06D0BAF1580F03D0B9F12F
:10085000000F10D01EE0B9F1000F02D0B9F1100F57
:1008600018D1A969761E01987F1C24F4007488476A
:100870008246102002E0082000E00A20814609E0BC
:10088000A96908FB0908761E01987F1C44F40074CE
:1008900088478246002E05DD4946504600F01CFE82
:1008A0000028EDDAE96901988847A00502D46FF0C5
:1008B0000100A8E7E00725D1600613D5600502D541
:1008C000C8F1000000E0404629680A1D2A60096856
:1008D000220501D5087015E0220701D5088011E036
:1008E00008600FE02868011D29600068210502D515
:1008F00080F8008006E0210702D5A0F8008001E022
:10090000C0F8008038467EE7401ECAB210F8011FCA
:100910008A4202D00029F9D10020704730B505463F
:100920000B462A4613F8014B12F8010B08B1A042FE
:10093000F8D01CB1002802D06D1CF1E7284630BD6C
:1009400040EA010310B59B070FD1042A0DD310C84C
:1009500008C9121F9C42F8D020BA19BA884201D99E
:10096000012010BD4FF0FF3010BD1AB1D30703D0E6
:10097000521C07E0002010BD10F8013B11F8014B9C
:100980001B1B07D110F8013B11F8014B1B1B01D1B8
:10099000921EF1D1184610BD10B5431C02E010F8AC
:1009A000011B71B18107FAD14FF0013202C88C1AD4
:1009B0008C4314EAC211F9D0C01A0A0603D0C01E33
:1009C00010BDC01A10BD0A0401D0801E10BD09025E
:1009D000FCD0401E10BD40EA010370B59B072ED12C
:1009E0004FF00136042A2AD308C810C99D1B9D4325
:1009F000121F15EAC61517D0D8B2E1B2401A50EA54
:100A0000056110D198B2A1B2401A50EA05410AD14D
:100A100023F07F4024F07F41401A50EA052102D1A3
:100A2000180EA0EB146070BDA342DBD018BA21BA37
:100A3000884201D9012070BD4FF0FF3070BD0AB966
:100A4000002070BD10F8013B11F8014B63B1A342C7
:100A50000AD1521E08D010F8013B11F8014B1BB10E
:100A6000A34201D1521EEDD1181B70BD032A40F2E2
:100A7000308010F0030C00F0158011F8013BBCF140
:100A8000020F624498BF11F801CB00F8013B38BF58
:100A900011F8013BA2F1040298BF00F801CB38BF66
:100AA00000F8013B11F0030300F0B285083AC0F0F2
:100AB000088051F8043B083A51F804CBA0E808102C
:100AC000F5E7121D5CBF51F8043B40F8043BAFF35F
:100AD0000080D20724BF11F8013B11F801CB48BFB9
:100AE00011F8012B24BF00F8013B00F801CB48BFEF
:100AF00000F8012B704702F0FF0343EA032242EAA9
:100B0000024200F002B84FF000020429C0F0128047
:100B100010F0030C00F01B80CCF1040CBCF1020FB0
:100B200018BF00F8012BA8BF20F8022BA1EB0C0185
:100B300000F00DB85FEAC17C24BF00F8012B00F87B
:100B4000012B48BF00F8012B70474FF0000200B5A1
:100B5000134694469646203922BFA0E80C50A0E8E0
:100B60000C50B1F12001BFF4F7AF090728BFA0E88E
:100B70000C5048BF0CC05DF804EB890028BF40F85A
:100B8000042B08BF704748BF20F8022B11F0804F9C
:100B900018BF00F8012B704710B5044610F0030F82
:100BA00008BF11F0030F40F015804FF0013E121FF7
:100BB000C0F20E8051F8043BA3EB0E0C2CEA030CA0
:100BC0001CEACE1C08BF40F8043BF0D0A1F10401A0
:100BD00002F10402521E08DB11F8013B00F8013B50
:100BE000002BF7D11146FFF78EFF204610BD000005
:100BF00030B44FF0013C50F8042B51F8043BCCFAD0
:100C000052F4D51A20D1FCB950F8042B51F8043B0A
:100C1000CCFA52F4D51A17D1B4B950F8042B51F8C4
:100C2000043BCCFA52F4D51A0ED16CB950F8042B0F
:100C300051F8043BCCFA52F4D51A05D1002CDAD085
:100C400030BC4FF00000704729BAB1FA81F111F0C1
:100C50001801D1F120008440F2D1CA40CB4012F0FB
:100C6000FF0213F0FF0330BCD01A70477047704783
:100C70007047000070B5064C7C44064D7D4404E08E
:100C80002046016808448047241DAC42F8D170BD5D
:100C900014CF000014CF000053EA020C00F069806A
:100CA0002DE9F04B4FF00006002B1FBFB3FA83F580
:100CB00003FA05F424FA05F65E4012BF1643B2FAB1
:100CC00082F502FA05F4C5F120051EBF22FA05FCE3
:100CD00044EA0C04203556EA044C4FEA144418BF89
:100CE000641C4FF000084FF00009904271EB030CB8
:100CF00039D3002919BFB1FA81F701FA07F6B0FA22
:100D000080F700FA07F6C7F120071EBF20FA07FC9C
:100D100046EA0C062037B6FBF4FCA7EB0507103FAC
:100D200007F01F0BCBF120062CFA06F60CFA0BFB92
:100D300044BFB3460026202FA4BF5E464FF0000BF1
:100D40005BEA060C08BF4FF0010B19EB0B0948EBEF
:100D50000608ABFB027C06FB02CC0BFB03CCC01BE2
:100D600071EB0C01C1E70B46024641464846BDE81F
:100D7000F08B13B5084318BF4FF0FF300146AFF3B7
:100D80000080BDE81C40704710B500F081FC006891
:100D900010BD10B5044600F07BFC046010BD09686E
:100DA0004A0501D540B27047C905FCD500B270476D
:100DB00009684A0501D5C0B27047C905FCD580B2A3
:100DC00070472DE9F0470D4699469246044600F1DA
:100DD00024080168880604D5E06921F0100121602B
:100DE00000E00120A84201DD471B00E00027A169C7
:100DF0007A1902EB0900081AA0612078C00602D413
:100E00002046FFF723FB002608E0D4E901211AF869
:100E100006009047206A401C761C20624E45F4DB99
:100E20002078C0060AD52046FFF710FB06E0D4E97B
:100E3000012130209047206A401C2062381EA7F113
:100E40000107F4DC07E0D4E9012118F80500904718
:100E5000206A401C2062281EA5F10105F3DC204613
:100E6000FFF70AFB2078000602D50220BDE8F087D4
:100E70000120FBE711680268006A530501D508707C
:100E80000AE0D30501D5088006E0130603D5C21792
:100E9000C1E9000200E00860012070472DE9FF4F22
:100EA0000C461E464FF0FF378BB0D2E90001DDF84B
:100EB00060800A908A46C1F30A5505B93D46002173
:100EC00008464FF00000BAF1000F00F4400005DAC8
:100ED00000EB80004FF4400101EA50004FEA9059C6
:100EE000B9F1010F00DDB9460A9850EA4A000ED068
:100EF00044F61050A5F2FF3545432F14B8F1000F0A
:100F00001ED07542291E1EDDC9F100021CE0B8F199
:100F1000010F4FF0000001D0302103E0F24305E063
:100F20002154401CB042FBDB3046002200212154FA
:100F30000B99C1F80880C1E900200FB0BDE8F08F1F
:100F4000BD1B6D1CDEE74A4600DA694206A800F0C8
:100F50007FFF06AB93E8070003AB83E8070050462A
:100F60000A990AF036FB8DE80700A0F500501F38FB
:100F700000900398002D0ADD42F21F014A46084402
:100F8000002303A9039068460AF0E2FD09E0A0F5FA
:100F900000504A461F38002303A9039068460AF010
:100FA00001FE8DE807000004000C03D04FF0FF3075
:100FB000410800E01046B8F1000F03D00022009273
:100FC00015461EE0751E05D400F066FB30326255F2
:100FD0006D1EF9D5B3460122084302D000227F1CC2
:100FE00004E02078302801D100227F1E002A0997D2
:100FF00084D01DE0112D07DA00F04EFB303262552F
:101000006D1C50EA0102F5D1084302D00098C8B126
:101010000EE00021681E05E0235C625C63542254EC
:10102000401E491C8142F7DBAB46A81B401E0990BD
:10103000002004F80B000B98099AC0F80880C0E95A
:10104000002B7AE711264FF0000857E72DE9F04F03
:1010500088460446D21D22F0070191B0D1E9000173
:10106000CDE90A010AF0EAFE02460B98C00F01D052
:101070002D2007E02068810701D52B2002E02021E8
:1010800001EAC000032A099001D0072A05DB0346C4
:101090004146204600F0CCFC0BE12078800601D5CB
:1010A000E06900E00620B8F1650F814606D0B8F18E
:1010B000660F18D0B8F1670F70D131E00020B9F198
:1010C000110F009001DB112301E009F101030AAACD
:1010D00001A90CA8FFF7E2FEDDE90C70002609F17A
:1010E0000105834647E001204B4600904FF0004742
:1010F0000AAA01A90CA8FFF7D1FEDDE90DB00C99F1
:101100005D46002610B909F101000D18B9EB050084
:1011100003D4C0F1FF3609F10105A5EB09002BE06E
:10112000B9F1010F01DA4FF001090020B9F1110FF7
:101130000090484601DD112300E003460AAA01A9F8
:101140000CA8FFF7ABFEDDE90C704D460026834688
:10115000207800070AD4AB4500DA5D4601A8012DCE
:1011600004DD411911F8011C302907D04F4502DA7E
:1011700017F1040F04DA012082460FE06D1EEEE73E
:10118000002F02DCED1B3E4403E0781CA84200DD8A
:101190007D1CB81B00F1010A4FF0004720780007C2
:1011A00003D4AA4501DB4FF0FF3A0021B7F1004F0D
:1011B0000DF143088DF8431024D002202B23002F7B
:1011C00001DA7F422D230A21021EA0F1010000DC7A
:1011D0005FB197FBF1FC97FBF1F201FB1C7C17461A
:1011E0000CF1300C08F801CDEEE7A8F10100037016
:1011F0002188090501D5452100E06521A0F10108FC
:1012000000F8011C09980FA9A1EB0807FF1D00B108
:101210000120411901EBEA70A1693844081A401E07
:10122000A0612078C00602D42046FFF70FF9099884
:1012300028B1D4E901219047206A401C206220781F
:10124000C00622D52046FFF701F91EE0002E04DB80
:10125000B34502DD01A8805D00E03020D4E9012122
:101260009047206A401C2062761CAAF101005FEAC8
:10127000000A0AD100F008FAC0680168405CD4E9AD
:1012800001219047206A401C2062281EA5F101051B
:10129000DCDC07E0D4E9012118F8010B9047206A53
:1012A000401C2062381EA7F10107F3DC2046FFF73F
:1012B000E3F8032011B041E601694A1C0261087895
:1012C000704700B58FB0CDE9013100210591054986
:1012D0007944CDE9031011466846FFF78DF90FB048
:1012E00000BD0000E5FFFFFF0A6802F8010B0A607D
:1012F0007047D1E900239A4202D2531C0B60107050
:10130000704710B5436913B1AFF3008001E0FFF7F8
:10131000C4F8012010BD127800F124010A700022E7
:101320004A700122EDE711684FF0FF32E9E7000053
:101330002DE9FF5F15468A460446DFF8AC80F84485
:101340000027D8E900103E46CDE9001010E03AF839
:1013500016106A4602A800F0EDFD411C07D0217866
:10136000890603D5E269391891420DD80744761CE5
:101370002078800602D5E069B84205DDAE42E6DBA2
:101380003AF816000028E2D1A069C01BA0612046EF
:10139000FFF75CF8D8E90010CDE90010002017E055
:1013A0003AF818106A4602A800F0C4FDB0F1FF3FF9
:1013B00081460BD000250DF1080B05E0D4E9012191
:1013C0001BF8050090476D1C4D45F7D308F101004F
:1013D000B0428046E4DB206A384420622046FFF7B2
:1013E0004BF8BDE8FF9F0000BAB400002DE9F041C2
:1013F0008046D21D22F007020025D2E90002F5291D
:1014000015A614D0011E72F1000106DA0023D0EBFC
:10141000030063EB020211A608E0D8F800108B0766
:1014200001D50FA602E0490701D50EA601251146F8
:10143000002408F1240704E000F02EF930323A5578
:10144000641C50EA0102F7D12B4632462146404641
:10145000BDE8F041FFF7B5BC000000002D00000022
:101460002B0000002000000030B4002100F1240413
:1014700008E002F00705D208303542EA4372DB0883
:101480006554491C52EA0305F3D10468002310A2F5
:10149000250708D504F020040C4304D0C4690123B7
:1014A0000CA2641EC46130BCFFF78BBC10B50446AF
:1014B00021461068FFF77CFC02462046BDE810403C
:1014C0000023D1E7D21D22F00701D1E90023CBE7A9
:1014D00000000000300000003A2800D2303820F030
:1014E0002002412A01D3A2F13700884201D34FF0F4
:1014F000FF30704702681144137801601846704746
:10150000D16005497944516104497944116200214F
:101510001161114600F0E2BAEDFFFFFF1502000075
:10152000426842B1016811F8013B23B1521EC0E983
:101530000012184670470121C160881E704742683A
:101540005AB1C368016843B983688B4205D0491E0C
:10155000521CC0E90012002070474FF0FF30704766
:101560000FB40B0010B54FF000048AB00FA9009122
:101570000E99CC60234C7C44234A7A44CDE9064240
:1015800000D004236FF00042CDE901321F4A7A44B3
:101590006B460892024600200BF0F4F80AB010BC2B
:1015A0005DF814FBF0B507464FF0FF301E461546B8
:1015B0000C463B4685B06A460091CDE901013146B3
:1015C0000020049004A8FFF7CBFF0499034660189D
:1015D00025B109B1024600E022462A6000290ED05A
:1015E000002B02DD0099814209D03B466A46314614
:1015F000001B0094CDE9010404A8FFF7B1FF05B07A
:10160000F0BD0000A7FFFFFFC1FFFFFF9101000039
:1016100010B5203AC0F00B80B1E81850A0E818507F
:10162000B1E81850A0E81850203ABFF4F5AF5FEACF
:10163000027C24BFB1E81850A0E8185044BF18C974
:1016400018C0BDE810405FEA827C24BF51F8043B1B
:1016500040F8043B08BF7047D20728BF31F8023B6F
:1016600048BF11F8012B28BF20F8023B48BF00F803
:10167000012B704701491820ABBEFEE7260002008F
:10168000004870474801002000487047680100206A
:10169000004870474801002030B5B0F10A0271F1EE
:1016A00000034FEA900E4EEA817EB0EB0E0061EB34
:1016B00091014FEA101E4EEA017E10EB0E0041EB45
:1016C00011114FEA102E4EEA016E10EB0E0041EBA5
:1016D00011214FEA104E4EEA014E10EB0E0041EB85
:1016E0001141401841F100014FEAD00040EA417039
:1016F0004FEAD1014FEA810444EA907410EB80056F
:1017000044EB01046D1944EB0404521BA3414FF058
:10171000000348BF0A3200D530BD401C41F1000132
:1017200030BD10B5044600F04FFC0068005D00F0CD
:10173000010010BD2DE9F04F04460D46D21D22F0E8
:10174000070089B0D0E90097484639460AF076FB91
:101750000246F80F01D02D2307E02068810701D54C
:101760002B2302E0202101EAC0038DF820300BB1C9
:10177000012000E00020032A824601D0072A04DB72
:101780002946204600F054F93FE12078800601D434
:101790000D2500E0E569C7F30A560D2D49DA002151
:1017A0004FEA175B08464FF00000002F00F440009E
:1017B00007DA00EB80004FF4400100EBD07001EA43
:1017C00060008115012901DD4FF0FF3100224FEA51
:1017D000850CBCF1180F06D31346ACF118004FF07E
:1017E0008052C24003E04FF4801323FA0CF30CF153
:1017F0000C0CBCF1200F04D3ACF1200C09FA0CF056
:1018000001E007FA0CF000294FF0004801DD18B99B
:101810000FE00ED140450CD319EB02095F4121B90D
:10182000404502D19F4329EA0209BBEB175F00D074
:10183000761C2088000502D57B48784402E07A486F
:101840007844193808AA302302F80A30037C0AF1D8
:101850000101002E0AF1020A53546A4602DC4FF0DD
:10186000300101E04FF031014FF001088DF8001018
:1018700002D0A6F2FF3603E059EA470100D06B4ED2
:10188000002D02DC2178090704D54FF002082E2133
:101890008DF80110C44600210BE0C7F303433F015C
:1018A000C35C491C6D1E02F80830052908F10108C7
:1018B00001DA002DF1DC00210CE000EB1973491C6A
:1018C0001B786D1E082902F808304FEA091908F143
:1018D000010801DA002DF0DC21688B0602D516E044
:1018E000A8F10108E04505DD02EB080313F8013C0F
:1018F000302BF5D0B8F1000F09DD02EB080313F827
:10190000013C2E2B03D1090701D4A8F10108002DB9
:1019100005DD3E2102F808106D1E08F10108407C2B
:10192000002E02F8080008F1010804DA2D207642A2
:1019300002F8080002E02B2002F808000A214FF408
:101940007A70864208F101080BDB96FBF0F3303326
:1019500002F8083096FBF0F308F1010800FB13666B
:1019600001E0642E0CDB642096FBF0F3303302F8C8
:10197000083096FBF0F308F1010800FB136601E064
:101980000A2E06DB96FBF1F0303002F8080008F171
:10199000010896FBF1F001FB1060303002F80800FE
:1019A000A16908F1010808EB050202EB0A00081A18
:1019B000A0612078C00602D42046FEF747FD216AC8
:1019C00008AE01EB0A00206204E0D4E9012116F818
:1019D000010B9047BAF1010AF7D22078C00602D570
:1019E0002046FEF733FD6E4609E016F8010B3E284F
:1019F0000FD0D4E901219047206A401C2062B8F141
:101A00000108F2D22046FEF737FD09B00320BDE8F9
:101A1000F08F206A2844206203E0D4E901213020BD
:101A200090476D1EEBD3F8E7D9AF000002FCFFFF33
:101A30002DE9F0411F46044603260168072A01F4F8
:101A4000006004DB08B116A505E016A503E008B1A7
:101A500015A500E015A521F010002060A069C01EAA
:101A6000A0610FB1401EA0612046FEF7EFFC4FB110
:101A7000D4E9012138469047206A401C2062C01CEE
:101A8000206206E0206AFAE7D4E9012115F8010B8B
:101A90009047761EF8D22046FEF7EEFCBDE8F081B6
:101AA0004E414E006E616E00494E4600696E660002
:101AB00010B5436913B1AFF3008001E0FFF738FCC4
:101AC000012010BD128800F1240182840022C2840A
:101AD0000122EDE711684FF0FF32E9E72DE9F34FFE
:101AE0004FF0000A0C4656468DB001200C9001F1D3
:101AF0000C000B9062690B9801219047051E2DD0B8
:101B0000252D2CD0216A8847C0B162690B9801212C
:101B10009047216A88470028F7D16269411E0B98D7
:101B2000904700E0761CA1690D988847216A884794
:101B30000028F7D1E1690D988847DBE7A1690D9886
:101B40008847A842074601D1761CD3E7E1690D9882
:101B500088477F1C02D1BAF1000F6FD06BE1626938
:101B60000B9800273D46394690472A2804D16269E0
:101B70000B98012190470125DFF8D08262690B980C
:101B800001219047A0F130010A290AD24745E5DC3E
:101B900007EB870100EB4107303FDFD445F010052C
:101BA000ECE7E90601D46FF000476C280AD04C2816
:101BB00014D0682815D06A280DD074281CD07A2833
:101BC0001AD01DE062690B98012190476C2802D061
:101BD00045F0040514E045F002050DE045F0200550
:101BE0000AE062690B9801219047682802D045F00D
:101BF000080505E045F4006562690B9801219047EE
:101C0000C4E9015765283DD019DC58287AD00CDC8E
:101C1000452837D004DC252826D041289ED131E044
:101C200046282FD0472899D12CE05B2877D061280F
:101C300028D063287CD0642823D15AE0F6E06F28AE
:101C400048D008DC66281DD067281BD0692821D021
:101C50006E2816D127E0702845D0732868D07528E3
:101C600047D078280DD14DE0A1690D9888472528E7
:101C700005463FF469AFE1690D9888476D1C3FF454
:101C80006AAFD8E00D9923466A466FF001000AF06A
:101C900079FDC5E045F0400023464FF0000260604A
:101CA000A80736D43EE0E8077FF447AF2068011D5F
:101CB00021600068290501D506701BE7290701D5B9
:101CC000068017E7A90703D5F117C0E9006111E7FE
:101CD00006600FE745F0400023464FF008026060C1
:101CE000A80716D41EE040F60E0125EA0100606048
:101CF00016E045F0400023464FF00A026060A80756
:101D000007D40FE045F040006060A80708D52346DF
:101D100010220D996FF00100AFF3008080E007E022
:101D2000102223460D996FF00100FEF747FD77E082
:101D30004FF0000963284F46C8464B46CB4602D0B9
:101D40005B2806D038E0E80601D40120A060012716
:101D500032E06269D4F80CB00B98012190475E28FC
:101D600007D14FF0010949466269D4F80CB00B98CD
:101D70009047216939B900210A4603AB43F8212075
:101D8000491C0829FADBD8B3216949B308F10108D5
:101D900062690B98012190475D28F4D1B9F1000FD9
:101DA00009D0002003A951F82020D24341F8202077
:101DB000401C0828F7DB03AB2069002820794FEA94
:101DC00040701ED05B462246CDF80080CDE90197D9
:101DD0000D9900286FF0010020DAAFF300801FE0BA
:101DE000C11703AA00EBD1614B1121F01F0102EBD7
:101DF0008302411A13680120884003431360C7E738
:101E000019E00D99224600286FF00100009702DAD0
:101E1000AFF3008004E0AFF3008001E0AFF3008097
:101E200000280ADA401C06D10C9820B14FF0FF3090
:101E30000FB0BDE8F08F5046FAE7E90701D10AF18B
:101E4000010A064400200C9054E60000CCCCCC0CD7
:101E50002DE9F047814616468AB0354878440DC8CA
:101E60008DE80D0032487844801C03AC0DC884E82E
:101E70000D0041F69B300844372190FBF1F290FBB6
:101E8000F1F5A5F1800501FB12041B3C02D564426B
:101E9000012000E00020DFF898A080460027FA44E7
:101EA000AAF1BE0A0EE0E0070AD03246684607EB08
:101EB000470101230AEB810109F074FE8DE8070058
:101EC00064107F1C002CEED1194F7F44AE3F19E007
:101ED000E80715D007EB04100DF1180A90E80E0082
:101EE0008AE80E00C068F04201D198190890324685
:101EF000012306A903A809F055FE03AB83E80700F8
:101F00006D10641C002DE3D14FF001033246694689
:101F1000B8F1000F03A802D009F01AFE01E009F0A1
:101F200041FEC9E90001C9F808200AB0BDE8F08700
:101F300048AA00002DE9F04116460C46054600F07F
:101F400043F8036893F80101012807D0FF2C12D849
:101F5000185D80B101202C70BDE8F081D3F8070135
:101F60003246214603F20713C7182846BC46BDE88F
:101F7000F041002360474FF0FF30EDE770477546B2
:101F8000FFF77EFBAE4605006946534620F007008A
:101F9000854618B020B5FEF7CFF9BDE820404FF0D8
:101FA00000064FF000074FF000084FF0000BAC4662
:101FB000ACE8C009ACE8C009ACE8C009ACE8C009AD
:101FC00021F007018D46704710B5FFF75DFB001D3E
:101FD00010BD00BFCDA100002DE9FF4F06468BB01C
:101FE0000878FF2806D0491C2D2805D000244FF082
:101FF000000908E000200CE00124F8E709EB890360
:10200000491C00EB43090878FF28F7D114B1C9F146
:1020100000008146107800252C46AA4629462D2826
:1020200001D02B2804D1521C2D2813D00020824629
:102030008B461078FF280FD04FF0000C0A21521C5D
:10204000A5FB017804FB018105FB0C11C5194BEBC5
:102050000104EEE70120EAE7002108464FF0000006
:10206000BAF1000F02D000EB80004008C0F38157A6
:10207000012F01DD4FF0FF370E9955EA040009EBFF
:1020800001080BD04FF0020918F5FA7F16DA4FEA73
:10209000CA70002F706008DD012007E04FEACA70A7
:1020A000C6E900B00FB0BDE8F08F00203060FFF748
:1020B000EFFAC0F800901821084616E0B8F5FA7F4C
:1020C00018DD002F02DAF748784401E0F64878443A
:1020D000D0E90010C6E9001040EACA707060FFF74E
:1020E000D7FAC0F80090142108460FB0BDE8F04FB1
:1020F0000AF0E1BA002108464FF00000B8F10001F3
:10210000099002DAC7F1000200E03A4601DAC8F1AC
:10211000000106A8FFF79CFE06AB93E8070003AB9F
:1021200083E8070044F23E005BEA04010090584651
:1021300004D144F21E012C465D460091210C090495
:10214000014306D10099240444EA15442D041039B2
:10215000009104F07F41014306D10099240244EA32
:1021600015642D020839009104F07041014306D135
:102170000099240144EA15742D01091F009104F00F
:102180004041014306D10099A40044EA9574AD0092
:10219000891E009104F00041084304D100986D1994
:1021A0006441401E00904FF001033A466846B8F182
:1021B000000FCDE9014503A902DD09F008FD01E0AA
:1021C00009F0DBFCBAF1000F04460D4601D084F0A3
:1021D0000044002108464FF00000099940F2FF77C3
:1021E000484010F00C0F07D124F00040284303D0E2
:1021F000C4F30A50B84212D1FFF74AFAC0F800906F
:10220000C4F30A50B8420AD1A8487844D0E9001073
:10221000C6E9001004F000410843706042E7C6E9D7
:1022200000543FE72DE9FF4F1F464FF0000A4FF0E3
:10223000FF38454691B0D7E90146CDF83CA0FFF7FD
:1022400023FAC0680168405C1090B96912986D1C4F
:102250008847396A814688470028F6D1B9F1FF3F9F
:102260000AD0002E24F4D06411DDB9F12B0F08D070
:10227000B9F12D0F0BD102E0404615B013E744F43D
:102280008064B96912986D1C8847761E8146600586
:1022900004A901D52D2000E02B20002E01F1010B17
:1022A0000DF130088DF810003FDDB9F1690F08D04D
:1022B000B9F1490F05D0B9F16E0F02D0B9F14E0F47
:1022C0001CD13B4601A8009580E85002DDE91212BE
:1022D0006FF002000AF05AFAC11CCED10EE0B969C3
:1022E00012986D1C884781461398761E44F400743A
:1022F00005600F98401C002E0F9016DDB9F1300FCD
:10230000EDD0B9F1780F02D0B9F1580F0DD10F9877
:1023100001280AD13B46CDE90054DDE91212001F25
:1023200002960AF031FAC11CA7D1109989453ED115
:1023300044F0800406E01399681CAAF1010A44F4F1
:1023400000740860B9696D1C1298761E88473028A1
:102350008146F0D02BE01099894505D1200603D4A1
:10236000761E44F0800418E0484609F0B4FE08B335
:10237000761E0DF123029345A9F1300044F4007458
:1023800006D20BF8010B200607D5AAF1010003E0E5
:10239000200602D40AF101008246A00502D5139955
:1023A000681C0860B96912986D1C88478146002E28
:1023B000D1DC53E0002E51DDB9F1650F02D0B9F147
:1023C000450F4BD1A00549D5B9696D1C1298761EF1
:1023D00024F440748847002E81460CDD2B2804D05D
:1023E000B9F12D0F07D144F48074B96912986D1CAE
:1023F0008847761E8146E00501D52D2100E02B217E
:1024000008F8011BCDF8008021E0761E0DF139019E
:10241000884544F400740CD2A9F1300010F0FF009C
:1024200088F8000002D10099884509D908F101080F
:1024300006E0E00501D51E4801E042F20F70824639
:10244000B96912986D1C8847814613980560002E63
:1024500004DD484609F03FFE0028D6D1F9691298FC
:102460008847FF2053468BF8000088F800000020C2
:102470000A900B9004AA0CA90AA8FFF7ADFDA005CD
:1024800002D46FF00100F8E614F0240F12D0E00738
:102490001CD13868DDE90A12031D3B600068C0E901
:1024A000001213E090B9000082B9000046B80000A5
:1024B000F1D8FFFF0AA9684609F0FAFDE00705D147
:1024C0003868009A011D3960006802602846D4E629
:1024D00010B50446AFF300802046BDE81040FDF77C
:1024E00016BFB2F120030AD5C2F1200301FA02F1AE
:1024F00020FA03F341EA030100FA02F0704700FA00
:1025000003F14FF0000070472DE9FF4F1F464FF0D9
:102510003C0987B04FF00042DDE9141001F10108D9
:10252000DDF858A002EA4050039000200590834651
:10253000054604460490B969461E08988847AAF1E2
:10254000010A0290BAF1000F3BDD02982E2815D047
:102550001021FEF7C1FF00282EDB4FF0010B05997B
:10256000014317D0B9F1000F0BDB4A46C117FFF743
:10257000B8FF05430C43A9F1040905E001200490CC
:102580000BE008B145F0010501200590049820B941
:10259000361D02E0049800B1361FB969089808F1A9
:1025A00001088847BBF1000FAAF1010A0290C9D0C7
:1025B0000999C1F80080C5E70298702808D0502812
:1025C00006D0F96908988847BBF1000F14D04FE096
:1025D000002002900120BBF1000F049009D0B969DE
:1025E000089808F101088847AAF10109B9F1000F1C
:1025F00007DCF969089888476FF001000BB0BDE867
:10260000F08F2B2804D02D280CD14FF0FF300490F0
:10261000B969089808F101088847A9F10109B9F1D9
:10262000000FE6DD411CE4D00A21FEF755FF00282B
:10263000DFDB029908F1010801EB810100EB4100A9
:102640000290B969089888470A21FEF745FF099A60
:10265000A9F10109B9F1000FC2F8008001DD0028DD
:10266000E7DAF969089888470499029800FB01663F
:1026700055EA040004D004F04041090002D006E00D
:10268000039898E0A40044EA9574AD00B61E04F0E7
:102690000041080002D16D196441761E159810F0B2
:1026A000240F03D04FF00B095C4803E04FF02809DA
:1026B0006FF07D008246564507DAAAEB0601894491
:1026C000B9F1410F01DD4FF0410901200021A9F1CD
:1026D0000102FFF706FF024628400B46214008434F
:1026E00001D0012100E00021501E029143F1FF3191
:1026F00028402140084301D0012000E00020029939
:10270000834651EA0B014FD0002108464FF00000EC
:10271000039900F4400039B100EB80004FF4400110
:1027200000EBD07001EA60008015012802DD4FF057
:10273000FF3000E013D0401C36D0029860B3BBF1EC
:10274000000F0CD14A4601200021FFF7CAFE2840A5
:102750002140084301D0012000E00020E0B1012029
:102760004A460021FFF7BDFE034640190A46614173
:102770002D1A8C4111D3B9F1400F09DD159810F0D5
:10278000240F02D0AAF1340603E0AAF1170600E0F4
:10279000761C00254FF0004406E05B1E42F1FF323C
:1027A00020EA030521EA0204CAF10100B04206DA78
:1027B0001B49039808430190002000900EE0039A03
:1027C000C4F3D321E80A0A43164940EA44500A43B5
:1027D0003146CDE90002684609F073FC159810F007
:1027E000240F0BD01598C00715D13868DDE9001209
:1027F000031D3B600068C0E900120CE002A86946B6
:1028000009F056FC1598C00705D13868029A011DD9
:102810003960006802604046F0E6000002FCFFFFFD
:102820000000F07F0000F03F2DE9FF4F92461D466B
:1028300085B04FF00041DDE9124BDDE914727F1ED7
:1028400001EA4B50414940F0FF4940EA01080021AC
:1028500022F020004928049102D04E2828D04CE0D4
:102860003BA0012607C88DE80700A9690698641CEB
:1028700088477F1E014606D41DF8060018B121F0D6
:10288000200181420BD0E96906988847032E34D095
:10289000082E32D06FF0010009B0BDE8F08F761C31
:1028A000032E01D0082EE0D1601CCAF80000DCE73E
:1028B000A9690698641C88477F1E2AD420F020004E
:1028C000412826D1A9690698641C88477F1E20D418
:1028D00020F020004E281CD1A9690698641C884766
:1028E0007F1E48F4002849F48009CAF8004001D44A
:1028F000282806D0E969069888475FEACB7012D08D
:1029000022E0A9690698641C88477F1E01D400282C
:1029100003DAE96906988847BCE72928F1D1641CE5
:10292000CAF80040E9E71BF0240F07D02868049993
:10293000031D2B600068C0E9001805E02868021D2F
:102940002A600068C0F800902046A5E70000F07FEC
:10295000494E46494E49545900000000FEE7000028
:10296000FEE70000FEE70000B0B540F20440C4F20C
:10297000020040F20044816801684068C4F2020429
:102980002046012100224FF44073002503F08CFB08
:102990002046002102224FF4407303F0AFFB204693
:1029A0004FF4407103F03CFB0A2001F057FE00BFDA
:1029B00020464FF4807103F031FB052001F04EFEFC
:1029C00020464FF4807103F02BFB052001F046FEFA
:1029D000082D05F10105EBD320464FF4807103F07B
:1029E0001FFB20464FF4007103F018FB052001F097
:1029F00035FE20464FF4007103F012FB052001F074
:102A00002DFE2046022101224FF4007303F04CFBFF
:102A10002046012102224FF4007303F06FFB204691
:102A2000022101224FF4807303F03EFB2046012176
:102A300002224FF4807303F061FBA4F5D8342046E2
:102A400003F000FC41F68021C0F20601204600227E
:102A500003F08AFB204600210022722303F046FC8B
:102A6000204603F019FC20464FF4806103F076FB0A
:102A70000A2001F0F3FDB0BDFEE70000FEE7000014
:102A8000B0B50024A4F15000C0B200F0A3F80020BB
:102A9000002500F09FF8102000F09CF8002000F0C6
:102AA0004FF9681C45B2B5F1FF3FF7DCE0B20134E5
:102AB000032828BFB0BDE5E7B0B5642001F0CEFD26
:102AC00040F2C8054FF0FF34C2F2000528194078E3
:102AD00000F080F80134152CF8D1FFF7D1FF002069
:102AE000002100F001F8B0BD10B50446A1F150007E
:102AF000C0B200F06FF82009103000F06BF804F05D
:102B00000F0000F067F810BDF0B581B0044640B288
:102B100001EBD4160028D8BF0024F1B220461D4690
:102B2000A2F12007FFF7E0FF102DF8B21DD14CF6FF
:102B3000E821C0F6000101EB00154FF0FF3700BFA0
:102B4000E819407800F0FCF80137072FF8D1701C25
:102B5000C1B22046FFF7C8FFEC1D082514F8010F8D
:102B600000F0EEF8013DF9D111E04CF6C00100EBA8
:102B70004000C0F6000101EB40044FF0FF3500BFFC
:102B80006019407800F0DCF80135052DF8D101B06E
:102B9000F0BD00002DE9F04115461278002A08BF6B
:102BA000BDE8F08198460E4607460024F8B2F1B21F
:102BB000D2B24346FFF7A8FF0837F8B201347828AD
:102BC000E0B288BF02362A5C88BF0027002AEDD118
:102BD000BDE8F081B0B545F2004440F6E041C4F2F2
:102BE0000004C2F2000100220A704870204640F240
:102BF000016103F06BFB002818BFFFF7B5FE20460C
:102C000040F2016103F062FBC0B14DF6F205CFF670
:102C1000FF7500BF012001F021FD204640F2016157
:102C200003F054FBB0FA80F100284FEA511003D0B2
:102C3000002D05F10105EDD120B128E0B0FA80F0BA
:102C4000400920BBFFF790FE204640F2016103F0EF
:102C50003DFBB0B14DF6F205CFF6FF75012001F056
:102C6000FDFC204640F2016103F030FBB0FA80F138
:102C700000284FEA511007D0002D05F10105EDD1D4
:102C800002E0B0FA80F04009002808BFB0BD20463D
:102C900003F03AFB20464FF4A06103F017FB002835
:102CA000F8D0204678216FF0010203F017FB00BF37
:102CB000204640F2015103F009FB0028F8D02046DD
:102CC00040F2015103F0EEFA204640F2075103F0C2
:102CD000FDFA0028F8D004F5033540F6E043C2F2CF
:102CE000000328460621002202F05EF8284606214D
:102CF000022202F0B7F920464FF4006103F0C6FA51
:102D00002846062101F0C4FF28460621202202F0B1
:102D100027F80028F8D028460621202202F00AF8D9
:102D20002846062101F0AAFF2046002103F0AEFA52
:102D3000204603F0EFFA00BF20688005FCD4B0BD48
:102D4000B0B545F2004440F2DE01C4F20004C2F224
:102D5000000140220A704870204640F2016103F0F1
:102D6000B5FA002818BFFFF7FFFD204640F20161C9
:102D700003F0ACFAC0B14DF6F205CFF6FF7500BF17
:102D8000012001F06BFC204640F2016103F09EFA45
:102D9000B0FA80F100284FEA511003D0002D05F160
:102DA0000105EDD120B128E0B0FA80F0400920BB48
:102DB000FFF7DAFD204640F2016103F087FAB0B177
:102DC0004DF6F205CFF6FF75012001F047FC2046D5
:102DD00040F2016103F07AFAB0FA80F100284FEA7C
:102DE000511007D0002D05F10105EDD102E0B0FA38
:102DF00080F04009002808BFB0BD204603F084FAE7
:102E000020464FF4A06103F061FA0028F8D0204674
:102E100078216FF0010203F061FA00BF204640F212
:102E2000015103F053FA0028F8D0204640F2015136
:102E300003F038FA204640F2075103F047FA002821
:102E4000F8D004F5033540F2DE03C2F20003284651
:102E50000621002201F0A8FF28460621022202F0E6
:102E600001F920464FF4006103F010FA28460621CC
:102E700001F00EFF28460621202201F071FF0028F4
:102E8000F8D028460621202201F054FF28460621CA
:102E900001F0F4FE2046002103F0F8F9204603F08B
:102EA00039FA00BF20688005FCD4B0BDFEE7000001
:102EB00080B506F0C1FB80BDFEE70000B0B501386B
:102EC0000024B4EB106F1CBF0120B0BD4EF2100502
:102ED000CEF2000568600F2000F0F8F80720AC6023
:102EE00028602046B0BD000080B501F0ABFB80BD7E
:102EF00010B582B04EF68850CEF20000016843F65D
:102F0000080441F47001C4F20204016054F8080C92
:102F100040F0010044F8080C54F8080C8007FBD579
:102F2000206800F00C00082866D10020019001996B
:102F30004F2905D801990131019101995029F9D3FF
:102F400021680091009921F0F0010091009941F071
:102F50008001009100992160019001984F2805D8C7
:102F600001980130019001985028F9D32068009011
:102F7000009820F0F0000090009840F09000009041
:102F8000009820600020019001994F2906D800BFC9
:102F900001990131019101995029F9D321680091DA
:102FA000009921F0F0010091009941F0A0010091F9
:102FB00000992160019001984F2805D801980130AF
:102FC000019001985028F9D320680090009820F0D3
:102FD000F0000090009840F0B00000900098206051
:102FE0000020019001984F2806D800BF01980130B9
:102FF000019001985028F9D300F078F820684FF636
:10300000FF7120F00300206054F8080CCFF6F66141
:10301000084044F8080C54F8080C20F4802044F8C8
:10302000080C00202060216843F21001C2F2004128
:1030300044F8041C606007F0FDFD02B010BD000004
:10304000B0B546F20044C4F20204A4F5AA3540F239
:103050000431C0F20401284608F046FA002808BFEF
:10306000B0BD284608F0B2F92046022102F000F86F
:1030700040F60155024640F6A870C2F20005C2F2C1
:1030800000002946FDF7F2FC28464FF40071FDF7D9
:103090003AFD40F60050C2F20000012101702046C6
:1030A000022101F0EBFD20460221202201F042FE28
:1030B000204602214FF4007201F0D4FF2046022185
:1030C00001F0E6FDB0BD0000FEE700004EF6235122
:1030D0000001CEF2000108707047000080B50120A9
:1030E00003F01EF980BD00007047000081B0002091
:1030F0000090009800097C2807D800BF0098013094
:1031000000900098B0F5FA6FF8D301B07047000056
:103110004FF0553101EA5001401A4FF0333220F0A0
:10312000CC3102EA9000084400EB101020F0F0309F
:103130004FF001314843000E70470000816841F0B4
:103140000801816081680907FCD4816841F00401AD
:10315000816000BF81684907FCD47047022912D002
:10316000012921D1511E0F291ED8C16A21F47001F5
:10317000C1624FF4700101EB0251C26A3FFA81F162
:103180001143C1627047511E032988BF7047816B8C
:1031900021F4401181634FF4401101EB0251826B25
:1031A00001F44011114381637047000042F2043181
:1031B000C4F201010A6822F4E0220A600A6810439E
:1031C000086070478268002922F4006218BF02F587
:1031D0000062826070470000816841F48071816004
:1031E00070470000816841F4007181607047000001
:1031F0008168C90718BF7047816841F0010181608B
:1032000070470000012907D0022918BF70474FF00E
:10321000140C6FF4401303E04FF01C0C6FF040539C
:10322000816802FA0CF21940816081681143816063
:1032300070470000012905D0022918BF70476FF4BC
:10324000702101E06FF070618368194081608168CE
:10325000114381607047000010B5052904D800F1C2
:10326000340C01EB810E10E00B2906D801EB810133
:1032700000F1300CA1F11E0E07E00F2910D801EB70
:10328000810100F12C0CA1F13C0EDCF800101F2490
:1032900004FA0EF4A14302FA0EF42143CCF8001014
:1032A000092A03D8103002EB420106E0122A88BF37
:1032B00010BD02EB42010C301E39026807248C401D
:1032C000A24303FA01F11143016010BD012905D0A9
:1032D000022918BF70474FF4800101E04FF0804190
:1032E0008268114381607047002A01F4807205D022
:1032F000BAB94A051BD489071FD470471AB142686E
:1033000022F4807242604A0503D5426822F480624A
:103310004260890758BF7047816821F002018160CF
:103320007047426842F4807242604A05E3D54268C1
:1033300042F4806242608907DFD5816841F0020172
:103340008160704742F20431C4F201010A6822F040
:103350001F020A600A6810430860704780B540F297
:10336000B410C2F20000008840F2B811C2F20001AD
:10337000088005F047FA80BD80B582B047F28140F1
:10338000C0F6000047F2613C009040F20400C0F635
:10339000000CC2F20000072100220023CDF804C077
:1033A00001F0A0FE02B080BD010901EB810100F037
:1033B0000F0000EB4100C0B27047000080B54FF035
:1033C000000E00BF51F82EC052F82E3003EA0C0355
:1033D00040F82E300EF1010EBEF1010FF2D080BD8B
:1033E00001F01F034FF0010C002A0CFA03F24FEA20
:1033F000511150F821300CBF23EA02021A4340F861
:103400002120704740F65020C2F200000021C0E9A0
:103410000A11704780B50822FDF792FA80BD0000BE
:10342000D0E9001040F65022C2F20002C2E90810B2
:10343000704700004A0950F8220001F01F01C840FF
:1034400000F001007047000070B50546002400261A
:1034500003E000BF0136012E07D155F826000028F1
:10346000F8D0FFF755FE0444F4E7204670BD000095
:1034700080B540F6502C0021C2F2000C0CEB810309
:10348000D3F828E050F82120013142EA0E02012948
:103490009A62F3D080BD0000F0B589B040F60240DA
:1034A00004F002FD41F2081004F0FEFC40F6164064
:1034B00004F0FAFC4FF44030FFF778FE42F20004CB
:1034C000C4F2010404F56840032100220123002610
:1034D000012702F0E9FD04F5A2352846002101F09C
:1034E00001FC04F14C00CDE9000740F2B410C2F237
:1034F0000000CDE902064FF4006004904FF4003064
:1035000008906A4628460021CDE9066701F0FEFCD6
:1035100028460021002201F0C5FB2846002101F0C9
:10352000D7FB2846002101F0B3FB0020FFF70AFF7C
:10353000204602210122FFF7D7FE20464FF480717A
:103540000122FFF7D1FE20460021FFF73BFE204677
:1035500001210122FFF702FE204600210A22012359
:10356000FFF77AFE204601210022FFF763FE204686
:1035700001210022FFF746FE2046FFF733FE2046DA
:10358000FFF72AFE2046FFF733FE012001F050F836
:103590002046FFF7D3FD20460121FFF797FE09B033
:1035A000F0BD000010B540F6014004F07DFC40F68F
:1035B000044004F079FC4FF4406004F075FC0024F2
:1035C000C4F2020404F58060002101224AF680233F
:1035D00002F06AFD04F5805000210122012302F06F
:1035E00063FD204600210122012302F05DFD10BD94
:1035F00070B58AB04FF4406004F056FC40F61540B8
:1036000004F052FC41F21D0004F04EFC41F20400B3
:1036100004F04AFC46F20004C4F20204A4F5C040DF
:10362000032100221023002502F03EFD2046052143
:103630000122012601F07EFB20460521042201F033
:1036400079FB20460521082201F074FB2046052164
:10365000102201F06FFB20460521202201F06AFBB9
:1036600020460521072201F01DFBA4F5F430A0F54A
:103670007E70019040F2B810C2F20000039040202A
:10368000CDE907064FF4006005904FF440300990F3
:1036900001AA2046052102960495069501F036FC04
:1036A0002046052101F0F4FAA4F5F634204600F096
:1036B0004DFF20460021002200F082FF204600211D
:1036C00000F072FF20460021002200F08DFF20460E
:1036D000002100F05DFF2046002100F04BFF07F0C5
:1036E000F5FB0AB070BD0000B0B588B040F60140EF
:1036F00004F0DAFB41F20E0004F0D6FB40F6154070
:1037000004F0D2FB40F20044C4F20204204605213A
:103710004FF4604202F04AFC2046022100224FF49E
:103720006043002502F0C0FC2046002102224FF435
:10373000604302F0E3FC2046012100224FF4805355
:1037400002F0B2FC2046002102224FF4805302F026
:10375000D5FC4FF482700190032006904FF4007066
:10376000049010200790A4F5E63001A90295039576
:10377000059506F03BFF06F003FE08B0B0BD000063
:1037800010B540F6034004F08FFB40F60044C4F24D
:1037900002042046012101224FF47C5302F084FCF4
:1037A0002046002102224FF47C5302F0A7FC10BDFA
:1037B0002DE9F04389B040F6014004F075FB41F279
:1037C000150004F071FB40F6154004F06DFB40F26B
:1037D0000044C4F20204204604214FF4007202F0B7
:1037E000E5FB204604214FF4807202F0DFFB204607
:1037F000022101224FF400734FF002084FF001093B
:1038000002F052FC2046012102224FF4007302F024
:1038100075FC2046022101224FF4807302F044FC23
:103820002046012102224FF4807302F067FCA4F5C8
:10383000D83541F68021C0F2060128460022002733
:1038400002F092FC284600210022722302F04EFD75
:10385000284602F021FD28464FF4806102F07EFCEC
:1038600004F5B8452846062101F03CFA6E4630467C
:1038700001F090FB4020069040F2DE00C2F2000012
:10388000CDE90207A4F5D030A0F57F60CDE90009AD
:103890004FF4403008902846062132460497CDF870
:1038A0001C8001F033FB2846062101F007FA284668
:1038B0000621012201F0F6F909B0BDE8F08300000D
:1038C00010B541F21C0004F0EFFA03F083F800F0A9
:1038D0002DF843F67000C4F20200006840F2B01107
:1038E000C0F30120C2F20001086042F65001C4F2A8
:1038F0000001096843F2F022914207D130B141F64C
:103900001B5004F001FA28B101240BE000F030F85C
:10391000044607E041F61A5004F0F6F9002818BFF3
:103920000120440004F072F9204610BD80B54FF428
:10393000E85004F0F7F94FF4E85004F003FA4FF4BC
:10394000007004F0E1FA40F6E840C2F2000040F2F4
:103950003F11016040F6E440C2F2000063210160C3
:1039600041F60F4004F0A0FA04F064FE80BD0000B0
:1039700080B540F6E440C2F20000016840F6EC4039
:10398000C2F20000018140F6E841C2F2000109687C
:103990004181252101700621C17043F20401A0F884
:1039A00001100021C0E9031145F623118180502147
:1039B000817104F0C1FD00280FBF4FF0FF3042F6C7
:1039C0005000C4F2000043F2F0211CBF016000204F
:1039D00080BD0000B0B58AB040F6164004F064FA2D
:1039E00041F20004C4F2010404F5AA35284602217C
:1039F00001F078F940F601510020C2F20001CDE952
:103A000003104FF480710891211D0790019101214D
:103A100005904FF440300291099001AA28460221F6
:103A200001F074FA2846022101F048F928460221E3
:103A3000042201F037F92846022101F029F94FF458
:103A4000406004F031FA41F2041004F02DFA04F55C
:103A50007045284607214FF4007202F0A7FA284665
:103A600007214FF4806202F0A1FA284602210122C8
:103A70004FF4007302F018FB2846002102224FF495
:103A8000007302F03BFB2846022101224FF48063C1
:103A900002F00AFB2846002102224FF4806302F064
:103AA0002DFB204607F09AFC20464FF4E13107F049
:103AB0002DFC2046042107F029FD2046082107F0AF
:103AC0002BFD2046402107F0EBFC204607F0F2FCDE
:103AD00025200021002202F0DBFD20464FF4417139
:103AE00007F0F6FC0AB0B0BD80B502F0A7F901F00E
:103AF00029FB80BD10B5044640780A4604F1300128
:103B0000012301F083F800281CBF032010BDB4F886
:103B10002E024AF6552188421CBF022010BD94F89F
:103B2000672094F8683094F86610120244F2461048
:103B300042EA0342C0F254001144814204BF002013
:103B400010BD94F8832094F8843094F88210120207
:103B500042EA03421144081A18BF012010BD0000B8
:103B6000B0B502F093FE04460D4602F023FF50B1BB
:103B700002F08CFE04460D4602F09AFE00196941DF
:103B8000441C41F1000520462946B0BD421E00BF3D
:103B900012F8010F002818BF8842F9D170470000C1
:103BA0002DE9F041036815461F78A7F13002092A74
:103BB00006D85F783A2F06BF02330360002200E088
:103BC0000022002A1CBF0B20BDE8F08140F2A810A3
:103BD000C2F2000004680C60BCB3207868B1607861
:103BE00001F02EF8C10708D140070A21002D18BFA7
:103BF00001EAE0752846BDE8F08100202080002021
:103C000000F0D4FFC1071CBF0320BDE8F081002DE8
:103C10001EBF10F004000A20BDE8F08120460021FC
:103C20000025FFF767FF012808D194F8F21179B158
:103C3000D4F8F65120462946FFF75CFF58B1032817
:103C40000CBF01200D20BDE8F0810C20BDE8F08103
:103C500000250028F3D1B4F83B00B0F5007F20D157
:103C6000B4F84600002808BF606D94F84030E06169
:103C7000591E0129E37014D894F83D104A1E0A40D9
:103C8000B1FA81F718BF01227F093A43A17008D128
:103C900094F8417094F8422047EA02223F072281BB
:103CA00002D00D20BDE8F081B4F84370002F08BFAA
:103CB000276DE68F002EF4D000FB03FE0EEB1213EF
:103CC00033449F42EDD3FF1A8F42EAD3B7FBF1F1A1
:103CD00040F6F5774FF00108B94288BF4FF002086F
:103CE0004FF6F5772B44B94288BF4FF00308A36223
:103CF000AB194FF6F67601F1020CB142C4F818C0C8
:103D0000236206D3002ACCD1E26D62624FEA8C02B4
:103D10000FE0002AC5D003EB0E02B8F1020F626279
:103D20000FBF4FEA4C020CEB4C0201F0010303EB16
:103D3000520202F2FF12B0EB522FB2D34FF6F672DC
:103D40004FF0FF3000269142E660206126D3B4F8A0
:103D5000600004F1300142196078012366716261EC
:103D600000F054FFD0B9B4F82E024AF6552188422B
:103D700014D1206B45F25221C4F2611188420DD159
:103D8000D4F8140247F27221C6F24111884205D1DB
:103D9000D4F81C02D4F81812C4E9030140F2AC10A4
:103DA000C2F20000018884F80080013101803046B1
:103DB000E180E6622671BDE8F08100008269023987
:103DC000023A914224BF002070478278806A01FB4A
:103DD0000200704710B547F65F14CFF6FE7400BFBF
:103DE000802006F0B1F9013401D00028F8D03CB1B0
:103DF00040F2FF70C0F2C00006F0A0F91D2010BD17
:103E0000132010BD2DE9F0470D460978804601F0DA
:103E1000BF000D2148434DF2D809A0F10D0701263E
:103E20000024C0F600094FF6FF7A06E050454FF037
:103E300000061CD101340D2C12D019F80400002EFC
:103E4000285A80B2F2D001F045FEFE2F16D8064661
:103E500038F8170001F03EFE86420FD10137E9E73E
:103E6000002E1CBF287810F0400003D101263046F8
:103E7000BDE8F08738F817000028F7D00020BDE82B
:103E8000F0870000B0B584B041F2000401A8C4F28C
:103E9000010404F043F8012825D101AA40F23415A9
:103EA00007CAC2F2000585E807001CA1204602F0FF
:103EB000B9FB286808F07CFB0B464DF2AF41024687
:103EC000C0F60001204602F0ADFB686808F070FB08
:103ED0000B464DF2CC410246C0F60001204602F0EE
:103EE000A1FB04B0B0BD03A1204602F09BFB04B0CF
:103EF000B0BD00BF4661696C656420746F20726557
:103F0000616420706172616D6574657273206672A0
:103F10006F6D20666C6173680D0A000072656164E4
:103F200020706172616D65746572732066726F6D69
:103F300020666C6173680D0A000000002DE9F04FE7
:103F4000ADF5297D4DF2F801C0F6000120A801224F
:103F500001F038FB38B141F2000066A1C4F2010063
:103F600002F060FB9FE0684620AA802101F014FA6D
:103F70000024002800F08A806D4620AE0FF2941BCA
:103F80004FF0000A4FF000094FF00008002710E042
:103F9000284662A1FCF7C2FC0746002818BF01278B
:103FA0004FF0000A28468021324601F0F5F900283A
:103FB00070D028460A21FCF7A7FC002818BF04701F
:103FC00028460D21FCF7A0FC002818BF04709DF8BE
:103FD00000003A2804DC0028E4D02328E2D00DE0D9
:103FE0003B28DFD05B2809D128465946FCF796FCD0
:103FF0000028CDD04FF0010A0027D3E7BAF1000F17
:1040000020D04DF2F4012846C0F60001FCF786FCF2
:10401000C0B128463D21FCF777FC0028C2D000BF84
:1040200010F8011F2029FBD007F09EFF51EC100B68
:1040300008F0CCF840F23411C2F2000108604FF0F1
:104040000108AFE73806ADD04DF2F4012846C0F6BE
:104050000001FCF763FC0028A4D028463D21FCF7B2
:1040600053FC00289ED000BF10F8011F2029FBD070
:1040700007F07AFF51EC100B08F0A8F840F2341169
:10408000C2F200014FF0010948608BE74FF00008D1
:104090004FF0000920A801F075F9B8F1000F18BF22
:1040A000B9F1000F03D10DF5297DBDE8F08F40F285
:1040B0003415C2F20005286841F20004C4F201047C
:1040C00008F076FA02460B4616A1204602F0AAFA3C
:1040D000686808F06DFA02460B4616A1204602F009
:1040E000A1FA284607F030FA0128DCD115A12046B4
:1040F00036E700BF636F6E6669672E696E6920667A
:10410000696C65206E6F7420666F756E642E0D0A83
:10411000000000005B526174696F5D005B4C696D6B
:1041200069745D00726174696F3A20252E31660DE5
:104130000A0000006C696D69743A20252E32660D04
:104140000A000000636F6E66696720726561642013
:10415000737563636573730D0A000000B0B540F2B8
:104160003414C2F20004206808F022FA41F200057B
:104170000B464DF2AF41C4F201050246C0F6000104
:10418000284602F04FFA606808F012FA0B464DF22A
:10419000CC410246C0F60001284602F043FA204610
:1041A00007F0D2F94DF287514DF29152C0F600015D
:1041B00001282846C0F6000208BF114602F032FA74
:1041C000B0BD0000F0B581B00D46044641B12046B7
:1041D000294601F0B9FD022809D2012001B0F0BD45
:1041E000E76857B1A069874228BF012706E0A169A7
:1041F0002F46884202D201B0F0BD01273E4600BFE3
:10420000A0690136864228BF022601D3022F0AD3B5
:104210002046314601F098FD411CECD030B1012818
:10422000E9D0BE42ECD1002001B0F0BD20463146BD
:104230006FF0704203F022FB014635B129B92046E8
:104240002946324603F01AFB014631B1012001290B
:1042500008BF4FF0FF3001B0F0BD2069E660411C9F
:1042600003D00138206101206071304601B0F0BDFB
:104270002DE9F04F85B00D688A46834601E000BF06
:10428000013528785C28FBD02F28F9D02A78DBF874
:104290001C80202A03D204270121002649E00026A1
:1042A00001210FF25429002408E000BF28F81670FD
:1042B0002A5D701C611C202A064638D3D0B22F28F4
:1042C0002FD05C282DD0FF2E2DD002F17F03DBB242
:1042D0001F2B05D32032D2B21C2A01D90C4611E083
:1042E0006A5CA2F140013F2909D351B2B1F1FF3F0D
:1042F0004FF0060100F3FC80FC2A00F2F980023442
:1043000042EA0020012101F0E1FB70B107467F285D
:10431000CCD848463946FFF739FC0028C6D00621DC
:10432000E6E0002705E00621E2E00621E0E00427C0
:1043300006466818CAF800008EB308EB460103E091
:10434000013EA1F1020128D031F8020C2E28F7D04D
:104350002028F5D00025DBF818000D8020210B2245
:1043600002F012F901E000BF013538F815002E28DF
:10437000FAD02028F8D0A8F10200002D18BF47F08D
:104380000307CDF810B000BF5EB130F81620711EE3
:104390002E2A0E46F8D1481C04E00621A8E006218A
:1043A000A6E000200190A0F1010B08224FF0010AC5
:1043B0000023002000210291541E814604E000BF2A
:1043C00083450CD047F0030738F815602846202EA7
:1043D00005F10105F6D02E2EF2D0002E64D09145C5
:1043E0004DD283454BD0802E0ED3304603934E469C
:1043F000914601F06FFB002101F068FB039B4A46E8
:10440000B146064647F00207B6F5807F05D3A145C1
:1044100016D347F003079146D6E766B139A0314677
:104420000393CDF800909146FFF7B0FB4A46DDF8C4
:104430000090039B90B147F003075F26049807E0C4
:104440000498310AD0F818C00CF8091009F10109D4
:10445000816909F1010001F80960AEE7A6F14100A8
:1044600080B2192802D843F00203E7E7A6F1610001
:1044700080B219289CBF43F00103203EDEE7029979
:10448000C90747F003010ED1834518BF0F460199B4
:104490008D4209D801209B000B224FF0000A0290A8
:1044A00008200D4688E70F46049C47F00202A069E9
:1044B0000178E52904BF052101705FEACA7018BFC1
:1044C0009B0003F0030103F00C00032908BF17460B
:1044D0000C2808BF1746BA0707D4012908BF47F0C0
:1044E0001007042808BF47F00807A0690021C77219
:1044F000084605B0BDE8F08F222A3A3C3E3F7C7F5B
:10450000000000002B2C3B3D5B5D000080B506A049
:1045100000F072FF06A000F06FFF08A000F06CFF33
:1045200007A000F069FF80BD73616D706C650000CD
:104530006F7665724C696D69740000006C6F67007E
:1045400068696465446174610000000047F20041DD
:10455000C4F20001884218BF704780B540F61D00C4
:1045600003F0C2FC40F61D0003F0AEFCBDE8804045
:104570007047000029B1012918BF70474FF08051E2
:1045800001E04FF480510268114301607047000060
:1045900029B1012918BF70474FF4803100E0012193
:1045A000026811430160704729B1012918BF7047A3
:1045B0004FF4802100E0042102681143016070473C
:1045C000012907D0002918BF7047016821F0380180
:1045D000016004E00168120421F4601101600168C7
:1045E0001143016070470000012907D0002918BF5E
:1045F0007047016821F0C001016004E00168120405
:1046000021F440010160016811430160704700001E
:104610004CF6CD42C1B2CCF6CC42A1FB0212D1087D
:1046200001EB8102A0EB420040EA0110C0B27047EA
:1046300040F64C21C2F20001086000BF0868002863
:10464000FCD1704740F64C20C2F2000001680029FE
:1046500008BF70470168013901607047B0B540F28A
:10466000E00140F6C842C2F20001C2F2000209684D
:104670001368A1FB00105B2BACBF12685A22D31742
:10468000551A8341A8BFB0BD8C1A60EBE27501F0EA
:1046900007FC24184D4100BF01F002FC001B71EB28
:1046A0000500F9DBB0BD0000B0B54DF2DA7141F2A2
:1046B0000004C0F600010A220546C4F20104FCF71A
:1046C0008AF968B92846FCF767F91E2808D82846F1
:1046D00006F06CFF23A120462A4601F0A3FFB0BDDF
:1046E00006A1204601F09EFF0BA1204601F09AFF93
:1046F00015A1204601F096FFB0BD00BF496E76615E
:104700006C69642044657669636520494420666F5E
:10471000726D61740D0A0000466F726D61743A200B
:10472000323032352D43494D432D585858202858A2
:104730005858206973207465616D206E756D6265CF
:1047400072290D0A000000004578616D706C653AB1
:1047500020323032352D43494D432D3030310D0A52
:104760000000000044657669636520494420757047
:1047700064617465643A2025730D0A002DE9F043E5
:1047800081B00021044600F0C3F9054618B128465F
:1047900001B0BDE8F083FF274FF6FF784FF0FF0927
:1047A0002068216901F0FCFE05460028EFD166690A
:1047B0003178E52908D0002940D0F07A020700F0CE
:1047C0003F0009D50F2807D0FF272046002100F021
:1047D00037F80028E4D02FE00F281AD1E06900282C
:1047E000F3D04A0606D596F80D90E28801F0BF0195
:1047F0000F462284FAB29142E6D1717B8945E3D11A
:104800003146FFF7FFFA013F002808BF4FF0FF379E
:10481000DBE7380604D1304606F058F98145B6D0BA
:10482000A169A4F82080C87AC007CDD1304601F034
:104830008BFE0028C8D1AAE70546A8E70425A6E70D
:104840002DE9F0470446C088471CBAB2BA4225D1C8
:10485000206918B317F00F0509D02068002600EB77
:1048600045103030E7806061F0B2BDE8F0870E4659
:10487000E1680130206169B120688378013B13EA67
:10488000121FEAD101F060FA02280BD20226F0B220
:10489000BDE8F087206800898242DED30426F0B2AA
:1048A000BDE8F0878046013014D0206881698845D2
:1048B00059D39EB1E168FFF785FC8046013011D0E5
:1048C000B8F1000F12D0B8F1010F13D14FF0000969
:1048D000022644E00126F0B2BDE8F0874FF000095F
:1048E00004263CE04FF00009012638E04FF00009B3
:1048F000072634E0206800214FF0000901F050FE47
:1049000008B101262BE02068002130304FF40072FE
:104910004FF0000A01F038FE266841463046FFF7A6
:104920004DFA2168F0628A789AB14FF0000A0126A8
:104930004FF000090E710846002101F031FE70B9F8
:1049400021680AF1010AC86A8A7801309245C86272
:10495000F0D3C86A4FF00109A0EB0A00C862B9F1B0
:10496000000F3FF481AF20684146C4F80C80FFF788
:1049700025FA206171E700002DE9F04F83B0D0E9FE
:1049800006B68046684659460C2201F0EFFD9DF8B8
:104990000BA05FEACA7024D000200127E9468BF8FB
:1049A0000B00C8F81C0000BFBCB25846494632464E
:1049B000234601F033F94046FFF7E0FE054620B9F3
:1049C000632C07F10107EFD36427B8B2642801D143
:1049D000072599E0042D40F097808BF80BA0C8F8CC
:1049E0001C605FEA8A7002D44FF0010910E00020D9
:1049F00081B236F811200130002AF9D101F11900F5
:104A00004EF64F41C4F6C461A0FB01014FEA910983
:104A10004046002100F07CF80546002874D10026AD
:104A20001FFA89F700240DE0200404F10104A0B26C
:104A300008BFB8F80660B84216D040460121FFF71B
:104A4000FFFE80B9D8F80000D8F8101001F0A8FDDA
:104A5000054648B9D8F814000078E528E4D00028C5
:104A6000E2D00024E9E70546022F2DD365BBB1B2A1
:104A7000404600F04DF8054630BBD8F8180006F067
:104A800025F80646A9F10104012700BFD8F8000067
:104A9000D8F8101001F084FDA8B9D8F81410D8F88F
:104AA0001C00E2B2334601F035F8D8F800000021CE
:104AB00007714046FFF7C4FE013C2104054603D0C0
:104AC000002DE3D000E00546F5B9D8F80000D8F88D
:104AD000101001F065FD0546B0B9D8F8144000216A
:104AE0002046202201F050FDD8F8181020460B2255
:104AF00001F03CFDD8F818000121C07A00F0180040
:104B00002073D8F800000171284603B0BDE8F08F8B
:104B1000F0B581B08268C180012A41D004460068A6
:104B20000D4681698A423BD26AB19AB18078B5EB71
:104B3000001F22D22F4620681146E260FFF73EF99F
:104B400000EB17100EE0017803290CBF426A002227
:104B5000002AEBD101890022A942E26020D9406AF3
:104B600000EB1510216805F00F0201EB4211303106
:104B7000C4E90401002001B0F0BD0601206811461F
:104B800001F0E2F8024601300DD0022A08D3206875
:104B90008069824204D2AD1BAFB2BE42EED9CAE7F1
:104BA000022001B0F0BD012001B0F0BD80B594B08D
:104BB0000021019128BB04F021FD1D2821D102A86C
:104BC00004F0AEFA1D281CD1BDF84C0004F078FCAE
:104BD00001A804F0DBFC9DF80710890710D41D28FC
:104BE0000FD14FF4006004F0C9F91D2809D100204D
:104BF00005F0BEF91D3818BF012014B080BD00BFFC
:104C0000FEE7012014B080BD00207047002918BFC6
:104C1000002B01D10420704780B508B11C200BE0A7
:104C20005202084611464FF40072012B02D103F0E4
:104C3000F9FE01E004F092FD1D3818BF012080BD8F
:104C4000002818BF01207047002918BF002B01D190
:104C50000420704780B508B11C200BE052020846C2
:104C600011464FF40072012B02D103F0EBFF01E07B
:104C700004F0B4FE1D3818BF012080BD01EB4101D6
:104C800000EBC100016921F00101016170470000E2
:104C900001EB410100EBC100016941F0010101613B
:104CA0007047000001EB410100EBC100016921F0F8
:104CB000606141EA426101617047000001EB41011E
:104CC00000EBC100016921F48071016170470000AF
:104CD00001EB410100EBC100016941F48071016108
:104CE0007047000001EB410200EBC20213694FF074
:104CF0003D0C23F0010313610023136153619361A1
:104D0000D3611362212353620A1F28BFD1B201EB82
:104D1000410301F002014FF00C024FEA410138BF9C
:104D2000082201EB430113580CFA01F11943115009
:104D3000704700000B1F28BFD9B201EB410C01F0F6
:104D400002014FF00C034FEA410138BF082301EB89
:104D50004C0C195802FA0CF211431950704700001C
:104D6000032903D8006801EB410305E00439CBB205
:104D700040685B0053FA81F301F00201490001EB46
:104D8000430102FA01F1084018BF012070470000FA
:104D900001EB410100EBC1000169002A21F0200173
:104DA00018BF2031016170474FF0200C002A08BF66
:104DB0004FF01C0C604401EB410140F8313070476A
:104DC00070B501EB410100EBC100136A416A194360
:104DD00041F004014162116848F23F738161D1687A
:104DE000CFF61C63C161D16A416101691469194040
:104DF0005368D2F830E01943D2F828C02143D2E9F1
:104E0000065641EA0E0141EA0C0129433143016192
:104E10009168012907D00029016914BF41F40041BC
:104E200041F4007102E0016921F4007101615169EE
:104E30000369002923F4806308BF03F580630361DD
:104E4000516A0269002922F4807208BF02F580725B
:104E5000026170BDF0B58DB046F20044C4F20204A8
:104E6000054620460321012203260127FFF762FFA2
:104E7000204603210422FFF75DFF2046032108227C
:104E8000FFF758FF204603211022FFF753FF20466B
:104E900003212022FFF74EFF20460321FFF7EEFEFD
:104EA00020460321FFF71EFF42F68040C4F20100B6
:104EB00000900020CDE90A0005904FF48050019049
:104EC0004FF4804004904FF440300C904FF40010A9
:104ED00007904FF4000006906A4620460321039590
:104EE0000297CDE90867FFF76BFF204603210122F7
:104EF000FFF74EFF204603210422FFF7D3FE204692
:104F00000321FFF7C5FE0DB0F0BD000010B501EBA9
:104F1000410100EBC100416A48F23F7321F00401F6
:104F200041621168CFF6FC7381619168C161D169FA
:104F300041610169146A01EA030E1369D2F818C0CD
:104F40004EEA030141EA8301214341EA0C01016178
:104F50005168012907D00029016914BF41F40041BB
:104F600041F4007102E0016921F400710161D1682E
:104F70000369002923F4806308BF03F5806303619C
:104F800051690269002922F4807208BF02F580721B
:104F9000026110BD00210122C0E90012C0E9021225
:104FA000C0E90412C0E9061101627047F0B58DB086
:104FB00046F20044C4F202040546204603210122C1
:104FC00003260127FFF7B6FE204603210422FFF740
:104FD000B1FE204603210822FFF7ACFE2046032144
:104FE0001022FFF7A7FE204603212022FFF7A2FE92
:104FF00020460321FFF742FE20460321FFF772FE01
:1050000042F68040C4F20100009040200A90002047
:105010000B9005904FF4805001904FF48040049025
:105020004FF440300C904FF4001007904FF4000004
:1050300006906A462046032103950297CDE908674A
:10504000FFF7BEFE204603210122FFF7A1FE204606
:1050500003210422FFF726FE20460321FFF718FE56
:105060000DB0F0BD01EB410100EBC10042617047A2
:1050700001EB410100EBC100406970472DE9F041AF
:1050800040F65028C2F20008B8F8045004469DB11A
:1050900000270026D8F80000D8F81C1038448847AC
:1050A000024620463146FEF79BF9B8F80450013617
:1050B000AE4207F11C07EDD3D8F81060002E08BFF0
:1050C000BDE8F081D8F81C10301D88470246204604
:1050D0002946FEF785F936680135002EF2D1BDE884
:1050E000F08100002DE9F047DDF820900746B9F186
:1050F000000F4FF0000023D0DDF824A0BAF1000F1C
:1051000008BFBDE8F08740F65024C2F200040E4606
:1051100020463C2198461546FBF717FD4FF6FF71D8
:10512000002061864FF4FA7184F83000C4E90D0163
:1051300001202760A680A560A4F80C80C4E906A918
:10514000BDE8F087B0B582B0044600206D46CDE9D9
:1051500000002846FFF792FF2846214600F05CF841
:1051600002B0B0BD2DE9F04182B0074640F65020B4
:10517000C2F200000E462030114698461546FEF752
:1051800059F9044630462946FEF754F900210191A9
:10519000E1B2C2B238464346009502F0DBF902B0F4
:1051A000BDE8F0812DE9F04184B005460020CDE94D
:1051B00002001046984616460F46FEF745F938B3EA
:1051C00002AC204639463246FEF7F8F82046314612
:1051D000FEF720F9B0FA80F0470940F65020C2F2FD
:1051E000000000F1200120463246FEF7E7F8204695
:1051F0003146FEF70FF9B0FA80F041094FF0FF3069
:105200000126009028463A464346019602F0A2F94C
:1052100004B0BDE8F08100002DE9F04F83B040F606
:105220005029C2F2000999F830208B4612F0010A89
:10523000044641D0FEF7E6F8B9F80C0008B36D4615
:1052400000264FF0000807E0B9F80C0008F101084B
:10525000804506F1240614D2D9F8080000218719E8
:1052600001910091284621463A46FEF7A7F82846C4
:105270003946FEF7CFF80028E6D13846FEF7F8F8B1
:10528000E2E7D9F81450BDB14FF000086E4601E0D6
:105290002D688DB12F1D304621463A46CDE9008854
:1052A000FEF78CF830463946FEF7B4F80028EFD107
:1052B0003846FEF7DDF8EBE7B9F80460EEB10025FB
:1052C00009F1280800270EE0D9F8000021462844FB
:1052D0003A465B46FFF746FFB9F804600137B7422C
:1052E00005F11C0509D2BAF1000FEDD04046394650
:1052F000FEF7A0F80028EFD1E6E7D9F81050B5B1D5
:1053000009F1280709E000BF281D214632465B4607
:10531000FFF728FF2D6801364DB1BAF1000FF3D029
:1053200038463146FEF786F80028F3D1ECE7B9F8A5
:105330000C0088B100250826D9F808002146304421
:10534000A0F108025B46FFF72DFFB9F80C0001350C
:10535000854206F12406EFD3D9F8145055B100BFA9
:1053600005F10C002A1D21465B46FFF71BFF2D6847
:10537000002DF5D12046FEF753F803B0BDE8F08FBD
:10538000401A704710B5044600F080FA002804BFA8
:105390000021216010BD00002DE9F04782B00746D2
:1053A000481E924620EAE07500260DF10608E946FF
:1053B0003C4600BFB54212D05046414601224B4602
:1053C00000F0A4F9009801280BD19DF806000134E3
:1053D000B8550A2806F10106ECD1012602E02E4656
:1053E00000E0BC190021002E08BF37463846217066
:1053F00002B0BDE8F08700002DE9F04FADF50D7D5E
:105400008C9000F007FD80468CA883A90122FEF74E
:10541000C7FB0646002840F0BA8080A889906846FD
:105420008C998A9083A800F0ADFB0646002808BF3F
:105430000826042E40F0AB80839F002138460026CA
:10544000FEF7C0FE002808BF07260128814608BFD6
:105450000226013008BF012616B1002E6BD106E0EE
:105460003846002101F09CF80646002E63D13846EC
:105470004946FEF7A3FC07F1300A044650460021D6
:105480004FF4007201F080F8504620210B2201F009
:105490007BF8102087F83B004FEA182087F8470078
:1054A0004FEA184087F848004FEA186087F849002B
:1054B0004FEA192087F84B004FEA194087F844005B
:1054C0004FEA19602E2587F8450007F15000514634
:1054D000202287F8305087F8468087F84A9001F0FC
:1054E00045F839788598032987F8515003D1796AAE
:1054F000411A08BF0846BD78A7F86A00010C000EE3
:1055000087F8641087F86500ADB14FF0010B00BF5C
:1055100038460021FC6287F804B001F041F80646E5
:1055200048B9504600214FF40072013401F02CF8C4
:10553000013D2806ECD12EB156B18398494602F0C0
:1055400051FD24E083A8FFF717FA0646002EF4D198
:1055500088991022CA724FEA1822CA754FEA184277
:105560000A764FEA18624A764FEA1922CA764FEA5B
:10557000194283980A754FEA196281F8168081F8FA
:105580001A904A750121017105F0B2FA06463046BB
:105590000DF50D7DBDE8F08F00281CBF0B20704776
:1055A00040F2A81CC2F2000C5CF82030002B1CBF9B
:1055B00000221A7000291CBF00220A704CF820102B
:1055C000002070472DE9F047ADF50E7D0446002020
:1055D0008D91206002F01F0A02F01E028DA884A99E
:1055E000FEF7DEFA81A98A9101A98B9118B98D99EC
:1055F00084A800F0C7FA899F0546002F08BF06253A
:10560000002818BF05461AF01C0F0BD0CDB1042D91
:1056100003D184A8FFF7B0F90546899F4AF0080A2C
:10562000F5B141E0002D3FD1F87AC10610D4C00792
:10563000284618BF07205FEA8A7148BF0546A5BB08
:1056400043E0F87A10F0110F05D0072545B12BE0A3
:10565000042555BB39E05FEA4A7048BF08251DBBE9
:105660001AF0080020D000F0D5FB397D7A7DBB7E92
:105670000904FE7E41EA02611944C7F80E000020C9
:1056800041EA0629849EF872F8617883B882012085
:10569000B9F1000F307107D0D6F82C80304649465A
:1056A00002F0A0FC38B105467DB1C5B128460DF524
:1056B0000E7DBDE8F087A9F10100F060304641465B
:1056C00000F06EFF0546002DEFD184980AF0080126
:1056D000C06A4AEA810AC4E90707002DE6D184F8C6
:1056E00006A0387D797DBA7E0004FB7E40EA016029
:1056F000104440EA03202061F8698499E0600020AA
:10570000A060A0612160C888A080CFE72DE9F04F9C
:1057100081B004468B460068A188164600229A464E
:105720001A6005F0FFFE10B101B0BDE8F08FA0795E
:10573000010600F19B80C00703D1072001B0BDE83E
:10574000F08FD4E902010027081AB04238BF06469C
:10575000002E00F0838004F12400009028E02068EF
:10576000009940784A460123FFF750FA002840F09C
:105770008480C4F8189000BFA0686FF35F20C0F564
:1057800000752044B54288BF354600F124015846D3
:105790002A4600F0EBFEA068AB442844A060DAF88B
:1057A0000000761B2844CAF800004FF00000BBD070
:1057B000A168C805E0D120688278FF3202EA51284A
:1057C0005FEA08620CD129B1616900F0BDFA0128D5
:1057D00003D847E02069012844D9411C4DD06061BD
:1057E000256861692846FEF7E9FAD8B3B7EB562F6A
:1057F00050FA88F920D05FFA88F1770AAB78CA1995
:1058000068789A4288BF5F1AFBB259464A46FFF74A
:10581000FDF9A17970BB48060BD5A069A0EB090082
:10582000B84206D200990BEB40204FF4007200F012
:105830009DFE7D020027AEE7A2694A4599D0A07976
:1058400040067FF58CAF687800990123FFF7FCF9DB
:10585000A17978B901F0BF00A07180E7002001B004
:10586000BDE8F08FA07940F08000A071022001B067
:10587000BDE8F08F41F0800002E0A07940F08000A8
:10588000A071012001B0BDE8F08F0000B0B5044662
:105890000068A18805F046FE054608B12846B0BD5F
:1058A000A0798106FAD540060ED52068A269407815
:1058B00004F1240101230125FFF7C6F90028EDD1E9
:1058C000A07900F0BF00A0712068E16900F068FED7
:1058D00005460028E2D1256AE87A40F02000E87207
:1058E000E0682877E068000A6877E089A877E07BBD
:1058F000E8772069A8762069000AE876608A28752A
:10590000E07C687500F086FAC5F81600A0790121E0
:1059100000F0DF00A0712068017105F0E9F805468C
:105920002846B0BD2DE9F04F81B004468846006896
:10593000A188164600229A461A6005F0F3FD10B1C0
:1059400001B0BDE8F08FA079010600F1B4808007B6
:1059500003D4072001B0BDE8F08FE068711EC0439A
:10596000814280F0978004F1240000901FE0C4F889
:10597000189000BFA06841466FF35F20C0F5007526
:105980002044B54288BF354624302A4600F0EEFD5B
:10599000A07940F04000A071A068A8442844A0600D
:1059A000DAF80000761B2844CAF8000072D0A0681C
:1059B000C105DFD122689178FF3101EA502B5FEAFF
:1059C0000B6113D120B161691046FEF7FBFB06E0C5
:1059D000206920B910460021FEF7F4FB2061411C2C
:1059E00054D0002856D0012861D06061A0794006CB
:1059F0000CD52068A269407800990123FFF724F9AB
:105A0000A17900285BD101F0BF00A0712568616910
:105A10002846FEF7D3F9002849D00021B1EB562FD4
:105A200050FA8BF920D05FFA8BF1770AAB78CA195C
:105A300068789A4288BF5F1AFBB241464A46FFF730
:105A400003F918BBA069A0EB0900B8420AD208EB21
:105A5000402100984FF4007200F088FDA07900F01A
:105A6000BF00A0717D0297E7A06948453FF47FAF72
:105A7000D4E902018842BFF47AAF687800994A46B7
:105A80000123FFF7C3F800283FF471AFA07940F07D
:105A9000800016E0D4E90201884288BFE060A07966
:105AA00040F02000A071002001B0BDE8F08FA07987
:105AB00040F08000A071022001B0BDE8F08F41F0FD
:105AC0008000A071012001B0BDE8F08F802828BFC0
:105AD00000207047802807D2A0F1610189B21A29FD
